{
  "_format": "hh-sol-artifact-1",
  "contractName": "ReputationAnchorRegistry",
  "sourceName": "contracts/ReputationAnchorRegistry.sol",
  "abi": [
    {
      "inputs": [
        {
          "internalType": "address",
          "name": "initialOwner",
          "type": "address"
        },
        {
          "internalType": "address",
          "name": "initialAuthoritySigner",
          "type": "address"
        }
      ],
      "stateMutability": "nonpayable",
      "type": "constructor"
    },
    {
      "inputs": [],
      "name": "ECDSAInvalidSignature",
      "type": "error"
    },
    {
      "inputs": [
        {
          "internalType": "uint256",
          "name": "length",
          "type": "uint256"
        }
      ],
      "name": "ECDSAInvalidSignatureLength",
      "type": "error"
    },
    {
      "inputs": [
        {
          "internalType": "bytes32",
          "name": "s",
          "type": "bytes32"
        }
      ],
      "name": "ECDSAInvalidSignatureS",
      "type": "error"
    },
    {
      "inputs": [],
      "name": "InvalidAuthoritySignature",
      "type": "error"
    },
    {
      "inputs": [],
      "name": "InvalidSubject",
      "type": "error"
    },
    {
      "inputs": [],
      "name": "NonceNotIncreasing",
      "type": "error"
    },
    {
      "inputs": [
        {
          "internalType": "address",
          "name": "owner",
          "type": "address"
        }
      ],
      "name": "OwnableInvalidOwner",
      "type": "error"
    },
    {
      "inputs": [
        {
          "internalType": "address",
          "name": "account",
          "type": "address"
        }
      ],
      "name": "OwnableUnauthorizedAccount",
      "type": "error"
    },
    {
      "inputs": [],
      "name": "ReplayDetected",
      "type": "error"
    },
    {
      "anonymous": false,
      "inputs": [
        {
          "indexed": true,
          "internalType": "address",
          "name": "previousSigner",
          "type": "address"
        },
        {
          "indexed": true,
          "internalType": "address",
          "name": "newSigner",
          "type": "address"
        }
      ],
      "name": "AuthoritySignerUpdated",
      "type": "event"
    },
    {
      "anonymous": false,
      "inputs": [
        {
          "indexed": true,
          "internalType": "address",
          "name": "previousOwner",
          "type": "address"
        },
        {
          "indexed": true,
          "internalType": "address",
          "name": "newOwner",
          "type": "address"
        }
      ],
      "name": "OwnershipTransferred",
      "type": "event"
    },
    {
      "anonymous": false,
      "inputs": [
        {
          "indexed": true,
          "internalType": "address",
          "name": "subject",
          "type": "address"
        },
        {
          "indexed": false,
          "internalType": "uint8",
          "name": "tier",
          "type": "uint8"
        },
        {
          "indexed": false,
          "internalType": "bytes32",
          "name": "snapshotHash",
          "type": "bytes32"
        },
        {
          "indexed": false,
          "internalType": "uint64",
          "name": "expiresAt",
          "type": "uint64"
        },
        {
          "indexed": false,
          "internalType": "uint256",
          "name": "nonce",
          "type": "uint256"
        },
        {
          "indexed": true,
          "internalType": "address",
          "name": "signer",
          "type": "address"
        }
      ],
      "name": "ReputationUpdated",
      "type": "event"
    },
    {
      "inputs": [],
      "name": "authoritySigner",
      "outputs": [
        {
          "internalType": "address",
          "name": "",
          "type": "address"
        }
      ],
      "stateMutability": "view",
      "type": "function"
    },
    {
      "inputs": [
        {
          "components": [
            {
              "internalType": "address",
              "name": "subject",
              "type": "address"
            },
            {
              "internalType": "uint8",
              "name": "tier",
              "type": "uint8"
            },
            {
              "internalType": "bytes32",
              "name": "snapshotHash",
              "type": "bytes32"
            },
            {
              "internalType": "uint64",
              "name": "expiresAt",
              "type": "uint64"
            },
            {
              "internalType": "uint256",
              "name": "nonce",
              "type": "uint256"
            }
          ],
          "internalType": "struct ReputationAnchorRegistry.UpdateRequest",
          "name": "req",
          "type": "tuple"
        }
      ],
      "name": "computeDigest",
      "outputs": [
        {
          "internalType": "bytes32",
          "name": "",
          "type": "bytes32"
        }
      ],
      "stateMutability": "view",
      "type": "function"
    },
    {
      "inputs": [
        {
          "internalType": "address",
          "name": "subject",
          "type": "address"
        }
      ],
      "name": "getReputation",
      "outputs": [
        {
          "components": [
            {
              "internalType": "uint8",
              "name": "tier",
              "type": "uint8"
            },
            {
              "internalType": "bytes32",
              "name": "snapshotHash",
              "type": "bytes32"
            },
            {
              "internalType": "uint64",
              "name": "expiresAt",
              "type": "uint64"
            },
            {
              "internalType": "uint256",
              "name": "nonce",
              "type": "uint256"
            }
          ],
          "internalType": "struct ReputationAnchorRegistry.ReputationRecord",
          "name": "",
          "type": "tuple"
        }
      ],
      "stateMutability": "view",
      "type": "function"
    },
    {
      "inputs": [
        {
          "internalType": "address",
          "name": "subject",
          "type": "address"
        }
      ],
      "name": "getSnapshotHash",
      "outputs": [
        {
          "internalType": "bytes32",
          "name": "",
          "type": "bytes32"
        }
      ],
      "stateMutability": "view",
      "type": "function"
    },
    {
      "inputs": [
        {
          "internalType": "address",
          "name": "subject",
          "type": "address"
        }
      ],
      "name": "getTier",
      "outputs": [
        {
          "internalType": "uint8",
          "name": "",
          "type": "uint8"
        }
      ],
      "stateMutability": "view",
      "type": "function"
    },
    {
      "inputs": [
        {
          "internalType": "address",
          "name": "subject",
          "type": "address"
        }
      ],
      "name": "isExpired",
      "outputs": [
        {
          "internalType": "bool",
          "name": "",
          "type": "bool"
        }
      ],
      "stateMutability": "view",
      "type": "function"
    },
    {
      "inputs": [],
      "name": "owner",
      "outputs": [
        {
          "internalType": "address",
          "name": "",
          "type": "address"
        }
      ],
      "stateMutability": "view",
      "type": "function"
    },
    {
      "inputs": [],
      "name": "renounceOwnership",
      "outputs": [],
      "stateMutability": "nonpayable",
      "type": "function"
    },
    {
      "inputs": [
        {
          "internalType": "address",
          "name": "newAuthoritySigner",
          "type": "address"
        }
      ],
      "name": "setAuthoritySigner",
      "outputs": [],
      "stateMutability": "nonpayable",
      "type": "function"
    },
    {
      "inputs": [
        {
          "internalType": "address",
          "name": "newOwner",
          "type": "address"
        }
      ],
      "name": "transferOwnership",
      "outputs": [],
      "stateMutability": "nonpayable",
      "type": "function"
    },
    {
      "inputs": [
        {
          "components": [
            {
              "internalType": "address",
              "name": "subject",
              "type": "address"
            },
            {
              "internalType": "uint8",
              "name": "tier",
              "type": "uint8"
            },
            {
              "internalType": "bytes32",
              "name": "snapshotHash",
              "type": "bytes32"
            },
            {
              "internalType": "uint64",
              "name": "expiresAt",
              "type": "uint64"
            },
            {
              "internalType": "uint256",
              "name": "nonce",
              "type": "uint256"
            }
          ],
          "internalType": "struct ReputationAnchorRegistry.UpdateRequest",
          "name": "req",
          "type": "tuple"
        },
        {
          "internalType": "bytes",
          "name": "signature",
          "type": "bytes"
        }
      ],
      "name": "updateReputation",
      "outputs": [],
      "stateMutability": "nonpayable",
      "type": "function"
    },
    {
      "inputs": [
        {
          "internalType": "bytes32",
          "name": "",
          "type": "bytes32"
        }
      ],
      "name": "usedDigests",
      "outputs": [
        {
          "internalType": "bool",
          "name": "",
          "type": "bool"
        }
      ],
      "stateMutability": "view",
      "type": "function"
    }
  ],
  "bytecode": "0x608060405234801561001057600080fd5b50604051610d5d380380610d5d83398101604081905261002f91610162565b816001600160a01b03811661005f57604051631e4fbdf760e01b8152600060048201526024015b60405180910390fd5b610068816100f6565b506001600160a01b0381166100d05760405162461bcd60e51b815260206004820152602860248201527f417574686f72697479207369676e65722063616e6e6f74206265207a65726f2060448201526730b2323932b9b99760c11b6064820152608401610056565b600380546001600160a01b0319166001600160a01b039290921691909117905550610195565b600080546001600160a01b038381166001600160a01b0319831681178455604051919092169283917f8be0079c531659141344cd1fd0a4f28419497f9722a3daafe3b4186f6b6457e09190a35050565b80516001600160a01b038116811461015d57600080fd5b919050565b6000806040838503121561017557600080fd5b61017e83610146565b915061018c60208401610146565b90509250929050565b610bb9806101a46000396000f3fe608060405234801561001057600080fd5b50600436106100b45760003560e01c8063b45aae5211610071578063b45aae5214610204578063b57e8b1814610242578063ba2eb54114610255578063c12d80b114610278578063d39c4de7146102a5578063f2fde38b146102c857600080fd5b80631813fcf5146100b95780633fef9a64146100ce578063715018a6146100f4578063834ff80b146100fc5780638da5cb5b146101275780639c89a0e214610138575b600080fd5b6100cc6100c7366004610a3e565b6102db565b005b6100e16100dc366004610ac2565b610577565b6040519081526020015b60405180910390f35b6100cc610588565b60035461010f906001600160a01b031681565b6040516001600160a01b0390911681526020016100eb565b6000546001600160a01b031661010f565b6101c4610146366004610ade565b604080516080810182526000808252602082018190529181018290526060810191909152506001600160a01b03166000908152600160208181526040928390208351608081018552815460ff1681529281015491830191909152600281015467ffffffffffffffff1692820192909252600390910154606082015290565b6040516100eb9190815160ff1681526020808301519082015260408083015167ffffffffffffffff16908201526060918201519181019190915260800190565b610230610212366004610ade565b6001600160a01b031660009081526001602052604090205460ff1690565b60405160ff90911681526020016100eb565b6100cc610250366004610ade565b61059c565b610268610263366004610ade565b610662565b60405190151581526020016100eb565b6100e1610286366004610ade565b6001600160a01b03166000908152600160208190526040909120015490565b6102686102b3366004610b07565b60026020526000908152604090205460ff1681565b6100cc6102d6366004610ade565b6106a7565b60006102ea6020850185610ade565b6001600160a01b0316036103115760405163d5be818f60e01b815260040160405180910390fd5b60006001816103236020870187610ade565b6001600160a01b03166001600160a01b031681526020019081526020016000209050806003015484608001351161036d5760405163313d6b0d60e21b815260040160405180910390fd5b6000610378856106e5565b60008181526002602052604090205490915060ff16156103ab5760405163faf8ed4f60e01b815260040160405180910390fd5b7f19457468657265756d205369676e6564204d6573736167653a0a3332000000006000908152601c829052603c81209050600061042086868080601f01602080910402602001604051908101604052809392919081815260200183838082843760009201919091525086939250506107a69050565b6003549091506001600160a01b0380831691161461045157604051631934d9ab60e01b815260040160405180910390fd5b600083815260026020908152604091829020805460ff1916600117905561047c918901908901610b20565b845460ff191660ff91909116178455604087013560018501556104a56080880160608901610b43565b60028501805467ffffffffffffffff191667ffffffffffffffff92909216919091179055608087013560038501556001600160a01b0381166104ea6020890189610ade565b6001600160a01b03167f5404f855f421fd37afe7f341d71320f6bbc228535201e975746d0fbe57011aac61052460408b0160208c01610b20565b60408b013561053960808d0160608e01610b43565b6040805160ff9094168452602084019290925267ffffffffffffffff16908201526080808c013560608301520160405180910390a350505050505050565b6000610582826106e5565b92915050565b6105906107d0565b61059a60006107fd565b565b6105a46107d0565b6001600160a01b0381166106105760405162461bcd60e51b815260206004820152602860248201527f417574686f72697479207369676e65722063616e6e6f74206265207a65726f2060448201526730b2323932b9b99760c11b60648201526084015b60405180910390fd5b600380546001600160a01b038381166001600160a01b0319831681179093556040519116919082907f8c351a0806c56a8b43fdf7f4e839230291ca82d166b5d352aa8b82654922567990600090a35050565b6001600160a01b03811660009081526001602052604081206002015467ffffffffffffffff1680158015906106a05750428167ffffffffffffffff16105b9392505050565b6106af6107d0565b6001600160a01b0381166106d957604051631e4fbdf760e01b815260006004820152602401610607565b6106e2816107fd565b50565b600030466106f66020850185610ade565b6107066040860160208701610b20565b604086013561071b6080880160608901610b43565b604051606096871b6bffffffffffffffffffffffff19908116602083015260348201969096529390951b909316605483015260f81b6001600160f81b0319166068820152606981019190915260c09190911b6001600160c01b03191660898201526080830135609182015260b101604051602081830303815290604052805190602001209050919050565b6000806000806107b6868661084d565b9250925092506107c6828261089a565b5090949350505050565b6000546001600160a01b0316331461059a5760405163118cdaa760e01b8152336004820152602401610607565b600080546001600160a01b038381166001600160a01b0319831681178455604051919092169283917f8be0079c531659141344cd1fd0a4f28419497f9722a3daafe3b4186f6b6457e09190a35050565b600080600083516041036108875760208401516040850151606086015160001a61087988828585610957565b955095509550505050610893565b50508151600091506002905b9250925092565b60008260038111156108ae576108ae610b6d565b036108b7575050565b60018260038111156108cb576108cb610b6d565b036108e95760405163f645eedf60e01b815260040160405180910390fd5b60028260038111156108fd576108fd610b6d565b0361091e5760405163fce698f760e01b815260048101829052602401610607565b600382600381111561093257610932610b6d565b03610953576040516335e2f38360e21b815260048101829052602401610607565b5050565b600080807f7fffffffffffffffffffffffffffffff5d576e7357a4501ddfe92f46681b20a08411156109925750600091506003905082610a1c565b604080516000808252602082018084528a905260ff891692820192909252606081018790526080810186905260019060a0016020604051602081039080840390855afa1580156109e6573d6000803e3d6000fd5b5050604051601f1901519150506001600160a01b038116610a1257506000925060019150829050610a1c565b9250600091508190505b9450945094915050565b600060a08284031215610a3857600080fd5b50919050565b600080600060c08486031215610a5357600080fd5b610a5d8585610a26565b925060a084013567ffffffffffffffff80821115610a7a57600080fd5b818601915086601f830112610a8e57600080fd5b813581811115610a9d57600080fd5b876020828501011115610aaf57600080fd5b6020830194508093505050509250925092565b600060a08284031215610ad457600080fd5b6106a08383610a26565b600060208284031215610af057600080fd5b81356001600160a01b03811681146106a057600080fd5b600060208284031215610b1957600080fd5b5035919050565b600060208284031215610b3257600080fd5b813560ff811681146106a057600080fd5b600060208284031215610b5557600080fd5b813567ffffffffffffffff811681146106a057600080fd5b634e487b7160e01b600052602160045260246000fdfea2646970667358221220460831fbcecf7f85e562e3a0281d33cddc5b2b0303689e15a4319f4277cf6d1164736f6c63430008180033",
  "linkReferences": {},
  "deployedLinkReferences": {}
}